:020000001729BE
:10000600410DC80DC90D4408C8024508031C450F1B
:10001600C902C00DC10D0F30CC00410DC80DC90D70
:100026004408401C1C28C8024508031C450FC90289
:100036002128C80745080318450FC907C00DC10D7B
:10004600CC0B102840182D284408C807450803186B
:08005600450FC9070000080076
:10005E0083124408003A031D3D284508003A031D4B
:10006E003D28FF30C0007F30C10096288312031355
:10007E00CD01C901C80141084004031900344108EB
:10008E004506CA00CA1BCD09CB01C51F5328C4099A
:10009E00C509C40A0319C50AC11F5A28C009C109D6
:1000AE00C00A0319C10A41084504CA00CA1B6F28B9
:1000BE0003204B188228CD1F0034C009C109C00A85
:1000CE000319C10AC809C909C80A0319C90A0034A3
:1000DE00C51F7E28C11B7A284108C9004008C800E8
:1000EE00C101C0016228C101C001C00A0034C109AA
:1000FE00C009CB0A5F28C80A0319C90A4408480276
:10010E00031D622845084902031D6228C901C80162
:10011E00C00A0319C10AC11F62280000FF3408007B
:0C012E00831217088A00160882000800DF
:10013A0097208A110A128000840A960A0319970ADC
:08014A00C003031D9D280800FD
:10015200E8308312C4000330C5001A08C0001B082F
:10016200C1002F204008980041089900E830C400DF
:100172000330C5001A08C0001B08C1002F20480820
:10018200C0004908C1006430C4000030C5002F20FF
:1001920040089C0041089D006430C4000030C50046
:1001A2001A08C0001B08C1002F204808C0004908D7
:1001B200C1000A30C4000030C5002F2040089E0054
:1001C20041089F000A30C4000030C5001A08C00070
:1001D2001B08C1002F204808C0004908C100400880
:0801E200A0004108A100080083
:1001EA00831218080C3E84000008860005140510C6
:1001FA001C080C3E840000088600851485101E0821
:10020A000C3E8400000886000515051120080C3EE6
:0C021A008400000886008515851108008E
:08022600831685018601080022
:10022E003F3083128C0006308D005B308E004F30D5
:10023E008F00663090006D3091007D309200073057
:10024E0093007F3094006F30950086018501132155
:10025E009A019B018030173AC00080301B06400285
:10026E00031D3B291A08473C031C6A29A920F520C7
:10027E006430C4000030C5001A08C0001B08C1005D
:10028E002F204808C0004908C10000304106031D58
:10029E0052293B304006031D582928309A0703186F
:1002AE009B0A0B30CB002630CC005D30CD00CD0B41
:1002BE005E29CC0B5E29CB0B5E29000000009A0A4A
:0802CE0003199B0A31296A297A
:02400E00FA3F77
:00000001FF
